{
    "_format": "hh-sol-artifact-1",
    "contractName": "Blog",
    "sourceName": "contracts/Blog.sol",
    "abi": [
        {
            "inputs": [],
            "stateMutability": "nonpayable",
            "type": "constructor"
        },
        {
            "anonymous": false,
            "inputs": [
                {
                    "indexed": true,
                    "internalType": "address",
                    "name": "owner",
                    "type": "address"
                },
                {
                    "indexed": true,
                    "internalType": "address",
                    "name": "approved",
                    "type": "address"
                },
                {
                    "indexed": true,
                    "internalType": "uint256",
                    "name": "tokenId",
                    "type": "uint256"
                }
            ],
            "name": "Approval",
            "type": "event"
        },
        {
            "anonymous": false,
            "inputs": [
                {
                    "indexed": true,
                    "internalType": "address",
                    "name": "owner",
                    "type": "address"
                },
                {
                    "indexed": true,
                    "internalType": "address",
                    "name": "operator",
                    "type": "address"
                },
                {
                    "indexed": false,
                    "internalType": "bool",
                    "name": "approved",
                    "type": "bool"
                }
            ],
            "name": "ApprovalForAll",
            "type": "event"
        },
        {
            "anonymous": false,
            "inputs": [
                {
                    "indexed": true,
                    "internalType": "address",
                    "name": "from",
                    "type": "address"
                },
                {
                    "indexed": true,
                    "internalType": "address",
                    "name": "to",
                    "type": "address"
                },
                {
                    "indexed": true,
                    "internalType": "uint256",
                    "name": "tokenId",
                    "type": "uint256"
                }
            ],
            "name": "Transfer",
            "type": "event"
        },
        {
            "inputs": [
                {
                    "internalType": "string",
                    "name": "_post",
                    "type": "string"
                }
            ],
            "name": "addPost",
            "outputs": [],
            "stateMutability": "nonpayable",
            "type": "function"
        },
        {
            "inputs": [
                {
                    "internalType": "address",
                    "name": "to",
                    "type": "address"
                },
                {
                    "internalType": "uint256",
                    "name": "tokenId",
                    "type": "uint256"
                }
            ],
            "name": "approve",
            "outputs": [],
            "stateMutability": "nonpayable",
            "type": "function"
        },
        {
            "inputs": [
                {
                    "internalType": "address",
                    "name": "owner",
                    "type": "address"
                }
            ],
            "name": "balanceOf",
            "outputs": [
                {
                    "internalType": "uint256",
                    "name": "",
                    "type": "uint256"
                }
            ],
            "stateMutability": "view",
            "type": "function"
        },
        {
            "inputs": [
                {
                    "internalType": "uint256",
                    "name": "tokenId",
                    "type": "uint256"
                }
            ],
            "name": "getApproved",
            "outputs": [
                {
                    "internalType": "address",
                    "name": "",
                    "type": "address"
                }
            ],
            "stateMutability": "view",
            "type": "function"
        },
        {
            "inputs": [],
            "name": "getPosts",
            "outputs": [
                {
                    "internalType": "string[]",
                    "name": "",
                    "type": "string[]"
                }
            ],
            "stateMutability": "view",
            "type": "function"
        },
        {
            "inputs": [
                {
                    "internalType": "address",
                    "name": "owner",
                    "type": "address"
                },
                {
                    "internalType": "address",
                    "name": "operator",
                    "type": "address"
                }
            ],
            "name": "isApprovedForAll",
            "outputs": [
                {
                    "internalType": "bool",
                    "name": "",
                    "type": "bool"
                }
            ],
            "stateMutability": "view",
            "type": "function"
        },
        {
            "inputs": [],
            "name": "isNFTHolder",
            "outputs": [
                {
                    "internalType": "bool",
                    "name": "",
                    "type": "bool"
                }
            ],
            "stateMutability": "view",
            "type": "function"
        },
        {
            "inputs": [
                {
                    "internalType": "address",
                    "name": "user",
                    "type": "address"
                },
                {
                    "internalType": "string",
                    "name": "tokenURI",
                    "type": "string"
                }
            ],
            "name": "mintNFT",
            "outputs": [
                {
                    "internalType": "uint256",
                    "name": "",
                    "type": "uint256"
                }
            ],
            "stateMutability": "nonpayable",
            "type": "function"
        },
        {
            "inputs": [],
            "name": "name",
            "outputs": [
                {
                    "internalType": "string",
                    "name": "",
                    "type": "string"
                }
            ],
            "stateMutability": "view",
            "type": "function"
        },
        {
            "inputs": [
                {
                    "internalType": "uint256",
                    "name": "tokenId",
                    "type": "uint256"
                }
            ],
            "name": "ownerOf",
            "outputs": [
                {
                    "internalType": "address",
                    "name": "",
                    "type": "address"
                }
            ],
            "stateMutability": "view",
            "type": "function"
        },
        {
            "inputs": [
                {
                    "internalType": "address",
                    "name": "from",
                    "type": "address"
                },
                {
                    "internalType": "address",
                    "name": "to",
                    "type": "address"
                },
                {
                    "internalType": "uint256",
                    "name": "tokenId",
                    "type": "uint256"
                }
            ],
            "name": "safeTransferFrom",
            "outputs": [],
            "stateMutability": "nonpayable",
            "type": "function"
        },
        {
            "inputs": [
                {
                    "internalType": "address",
                    "name": "from",
                    "type": "address"
                },
                {
                    "internalType": "address",
                    "name": "to",
                    "type": "address"
                },
                {
                    "internalType": "uint256",
                    "name": "tokenId",
                    "type": "uint256"
                },
                {
                    "internalType": "bytes",
                    "name": "_data",
                    "type": "bytes"
                }
            ],
            "name": "safeTransferFrom",
            "outputs": [],
            "stateMutability": "nonpayable",
            "type": "function"
        },
        {
            "inputs": [
                {
                    "internalType": "address",
                    "name": "operator",
                    "type": "address"
                },
                {
                    "internalType": "bool",
                    "name": "approved",
                    "type": "bool"
                }
            ],
            "name": "setApprovalForAll",
            "outputs": [],
            "stateMutability": "nonpayable",
            "type": "function"
        },
        {
            "inputs": [
                {
                    "internalType": "bytes4",
                    "name": "interfaceId",
                    "type": "bytes4"
                }
            ],
            "name": "supportsInterface",
            "outputs": [
                {
                    "internalType": "bool",
                    "name": "",
                    "type": "bool"
                }
            ],
            "stateMutability": "view",
            "type": "function"
        },
        {
            "inputs": [],
            "name": "symbol",
            "outputs": [
                {
                    "internalType": "string",
                    "name": "",
                    "type": "string"
                }
            ],
            "stateMutability": "view",
            "type": "function"
        },
        {
            "inputs": [
                {
                    "internalType": "uint256",
                    "name": "tokenId",
                    "type": "uint256"
                }
            ],
            "name": "tokenURI",
            "outputs": [
                {
                    "internalType": "string",
                    "name": "",
                    "type": "string"
                }
            ],
            "stateMutability": "view",
            "type": "function"
        },
        {
            "inputs": [
                {
                    "internalType": "address",
                    "name": "from",
                    "type": "address"
                },
                {
                    "internalType": "address",
                    "name": "to",
                    "type": "address"
                },
                {
                    "internalType": "uint256",
                    "name": "tokenId",
                    "type": "uint256"
                }
            ],
            "name": "transferFrom",
            "outputs": [],
            "stateMutability": "nonpayable",
            "type": "function"
        }
    ],
    "bytecode": "0x60806040523480156200001157600080fd5b506040518060400160405280601081526020017f57656233204465767320506f6c616e64000000000000000000000000000000008152506040518060400160405280600481526020017f5733504c000000000000000000000000000000000000000000000000000000008152508160009080519060200190620000969291906200044d565b508060019080519060200190620000af9291906200044d565b505050620000da33620000ce60086200013860201b62000e8e1760201c565b6200014660201b60201c565b6200011b620000f560086200013860201b62000e8e1760201c565b6040518060800160405280605b8152602001620039de605b91396200034060201b60201c565b620001326008620003c160201b62000e9c1760201c565b62000785565b600081600001549050919050565b600073ffffffffffffffffffffffffffffffffffffffff168273ffffffffffffffffffffffffffffffffffffffff161415620001b9576040517f08c379a0000000000000000000000000000000000000000000000000000000008152600401620001b090620005b6565b60405180910390fd5b620001ca81620003d760201b60201c565b156200020d576040517f08c379a0000000000000000000000000000000000000000000000000000000008152600401620002049062000572565b60405180910390fd5b62000221600083836200044360201b60201c565b6001600360008473ffffffffffffffffffffffffffffffffffffffff1673ffffffffffffffffffffffffffffffffffffffff1681526020019081526020016000206000828254620002739190620005e9565b92505081905550816002600083815260200190815260200160002060006101000a81548173ffffffffffffffffffffffffffffffffffffffff021916908373ffffffffffffffffffffffffffffffffffffffff160217905550808273ffffffffffffffffffffffffffffffffffffffff16600073ffffffffffffffffffffffffffffffffffffffff167fddf252ad1be2c89b69c2b068fc378daa952ba7f163c4a11628f55a4df523b3ef60405160405180910390a46200033c600083836200044860201b60201c565b5050565b6200035182620003d760201b60201c565b62000393576040517f08c379a00000000000000000000000000000000000000000000000000000000081526004016200038a9062000594565b60405180910390fd5b80600660008481526020019081526020016000209080519060200190620003bc9291906200044d565b505050565b6001816000016000828254019250508190555050565b60008073ffffffffffffffffffffffffffffffffffffffff166002600084815260200190815260200160002060009054906101000a900473ffffffffffffffffffffffffffffffffffffffff1673ffffffffffffffffffffffffffffffffffffffff1614159050919050565b505050565b505050565b8280546200045b9062000650565b90600052602060002090601f0160209004810192826200047f5760008555620004cb565b82601f106200049a57805160ff1916838001178555620004cb565b82800160010185558215620004cb579182015b82811115620004ca578251825591602001919060010190620004ad565b5b509050620004da9190620004de565b5090565b5b80821115620004f9576000816000905550600101620004df565b5090565b60006200050c601c83620005d8565b91506200051982620006e4565b602082019050919050565b600062000533602e83620005d8565b915062000540826200070d565b604082019050919050565b60006200055a602083620005d8565b915062000567826200075c565b602082019050919050565b600060208201905081810360008301526200058d81620004fd565b9050919050565b60006020820190508181036000830152620005af8162000524565b9050919050565b60006020820190508181036000830152620005d1816200054b565b9050919050565b600082825260208201905092915050565b6000620005f68262000646565b9150620006038362000646565b9250827fffffffffffffffffffffffffffffffffffffffffffffffffffffffffffffffff038211156200063b576200063a62000686565b5b828201905092915050565b6000819050919050565b600060028204905060018216806200066957607f821691505b6020821081141562000680576200067f620006b5565b5b50919050565b7f4e487b7100000000000000000000000000000000000000000000000000000000600052601160045260246000fd5b7f4e487b7100000000000000000000000000000000000000000000000000000000600052602260045260246000fd5b7f4552433732313a20746f6b656e20616c7265616479206d696e74656400000000600082015250565b7f45524337323155524953746f726167653a2055524920736574206f66206e6f6e60008201527f6578697374656e7420746f6b656e000000000000000000000000000000000000602082015250565b7f4552433732313a206d696e7420746f20746865207a65726f2061646472657373600082015250565b61324980620007956000396000f3fe608060405234801561001057600080fd5b506004361061010b5760003560e01c80636352211e116100a2578063a632281911610071578063a6322819146102b8578063b88d4fde146102d4578063c87b56dd146102f0578063e985e9c514610320578063eacabe14146103505761010b565b80636352211e1461021e57806370a082311461024e57806395d89b411461027e578063a22cb4651461029c5761010b565b806323b872dd116100de57806323b872dd146101aa57806332caf108146101c657806341f3004a146101e457806342842e0e146102025761010b565b806301ffc9a71461011057806306fdde0314610140578063081812fc1461015e578063095ea7b31461018e575b600080fd5b61012a60048036038101906101259190612013565b610380565b60405161013791906125f1565b60405180910390f35b610148610462565b604051610155919061260c565b60405180910390f35b610178600480360381019061017391906120e7565b6104f4565b6040516101859190612568565b60405180910390f35b6101a860048036038101906101a39190611fd7565b610579565b005b6101c460048036038101906101bf9190611e7d565b610691565b005b6101ce6106f1565b6040516101db91906125f1565b60405180910390f35b6101ec610714565b6040516101f991906125cf565b60405180910390f35b61021c60048036038101906102179190611e7d565b6107ed565b005b610238600480360381019061023391906120e7565b61080d565b6040516102459190612568565b60405180910390f35b61026860048036038101906102639190611e18565b6108bf565b60405161027591906128b5565b60405180910390f35b610286610977565b604051610293919061260c565b60405180910390f35b6102b660048036038101906102b19190611f47565b610a09565b005b6102d260048036038101906102cd9190612065565b610a1f565b005b6102ee60048036038101906102e99190611ecc565b610bc3565b005b61030a600480360381019061030591906120e7565b610c25565b604051610317919061260c565b60405180910390f35b61033a60048036038101906103359190611e41565b610d77565b60405161034791906125f1565b60405180910390f35b61036a60048036038101906103659190611f83565b610e0b565b60405161037791906128b5565b60405180910390f35b60007f80ac58cd000000000000000000000000000000000000000000000000000000007bffffffffffffffffffffffffffffffffffffffffffffffffffffffff1916827bffffffffffffffffffffffffffffffffffffffffffffffffffffffff1916148061044b57507f5b5e139f000000000000000000000000000000000000000000000000000000007bffffffffffffffffffffffffffffffffffffffffffffffffffffffff1916827bffffffffffffffffffffffffffffffffffffffffffffffffffffffff1916145b8061045b575061045a82610eb2565b5b9050919050565b60606000805461047190612b66565b80601f016020809104026020016040519081016040528092919081815260200182805461049d90612b66565b80156104ea5780601f106104bf576101008083540402835291602001916104ea565b820191906000526020600020905b8154815290600101906020018083116104cd57829003601f168201915b5050505050905090565b60006104ff82610f1c565b61053e576040517f08c379a0000000000000000000000000000000000000000000000000000000008152600401610535906127ce565b60405180910390fd5b6004600083815260200190815260200160002060009054906101000a900473ffffffffffffffffffffffffffffffffffffffff169050919050565b60006105848261080d565b90508073ffffffffffffffffffffffffffffffffffffffff168373ffffffffffffffffffffffffffffffffffffffff1614156105f5576040517f08c379a00000000000000000000000000000000000000000000000000000000081526004016105ec9061280e565b60405180910390fd5b8073ffffffffffffffffffffffffffffffffffffffff16610614610f88565b73ffffffffffffffffffffffffffffffffffffffff16148061064357506106428161063d610f88565b610d77565b5b610682576040517f08c379a00000000000000000000000000000000000000000000000000000000081526004016106799061270e565b60405180910390fd5b61068c8383610f90565b505050565b6106a261069c610f88565b82611049565b6106e1576040517f08c379a00000000000000000000000000000000000000000000000000000000081526004016106d89061282e565b60405180910390fd5b6106ec838383611127565b505050565b6000806106fd336108bf565b111561070c5760019050610711565b600090505b90565b60606007805480602002602001604051908101604052809291908181526020016000905b828210156107e457838290600052602060002001805461075790612b66565b80601f016020809104026020016040519081016040528092919081815260200182805461078390612b66565b80156107d05780601f106107a5576101008083540402835291602001916107d0565b820191906000526020600020905b8154815290600101906020018083116107b357829003601f168201915b505050505081526020019060010190610738565b50505050905090565b61080883838360405180602001604052806000815250610bc3565b505050565b6000806002600084815260200190815260200160002060009054906101000a900473ffffffffffffffffffffffffffffffffffffffff169050600073ffffffffffffffffffffffffffffffffffffffff168173ffffffffffffffffffffffffffffffffffffffff1614156108b6576040517f08c379a00000000000000000000000000000000000000000000000000000000081526004016108ad9061274e565b60405180910390fd5b80915050919050565b60008073ffffffffffffffffffffffffffffffffffffffff168273ffffffffffffffffffffffffffffffffffffffff161415610930576040517f08c379a00000000000000000000000000000000000000000000000000000000081526004016109279061272e565b60405180910390fd5b600360008373ffffffffffffffffffffffffffffffffffffffff1673ffffffffffffffffffffffffffffffffffffffff168152602001908152602001600020549050919050565b60606001805461098690612b66565b80601f01602080910402602001604051908101604052809291908181526020018280546109b290612b66565b80156109ff5780601f106109d4576101008083540402835291602001916109ff565b820191906000526020600020905b8154815290600101906020018083116109e257829003601f168201915b5050505050905090565b610a1b610a14610f88565b838361138e565b5050565b6001610a2a336108bf565b14610a6a576040517f08c379a0000000000000000000000000000000000000000000000000000000008152600401610a619061268e565b60405180910390fd5b600a73__$ff63054a5fca904aa61f9270973a47c131$__636031f1d49091610a926009610e8e565b846040518463ffffffff1660e01b8152600401610ab193929190612877565b60006040518083038186803b158015610ac957600080fd5b505af4158015610add573d6000803e3d6000fd5b505050506007600a73__$ff63054a5fca904aa61f9270973a47c131$__6334fa07e09091610b0b6009610e8e565b6040518363ffffffff1660e01b8152600401610b2892919061284e565b60006040518083038186803b158015610b4057600080fd5b505af4158015610b54573d6000803e3d6000fd5b505050506040513d6000823e3d601f19601f82011682018060405250810190610b7d91906120a6565b908060018154018082558091505060019003906000526020600020016000909190919091509080519060200190610bb5929190611bd4565b50610bc06009610e9c565b50565b610bd4610bce610f88565b83611049565b610c13576040517f08c379a0000000000000000000000000000000000000000000000000000000008152600401610c0a9061282e565b60405180910390fd5b610c1f848484846114fb565b50505050565b6060610c3082610f1c565b610c6f576040517f08c379a0000000000000000000000000000000000000000000000000000000008152600401610c66906127ae565b60405180910390fd5b6000600660008481526020019081526020016000208054610c8f90612b66565b80601f0160208091040260200160405190810160405280929190818152602001828054610cbb90612b66565b8015610d085780601f10610cdd57610100808354040283529160200191610d08565b820191906000526020600020905b815481529060010190602001808311610ceb57829003601f168201915b505050505090506000610d19611557565b9050600081511415610d2f578192505050610d72565b600082511115610d64578082604051602001610d4c929190612544565b60405160208183030381529060405292505050610d72565b610d6d8461156e565b925050505b919050565b6000600560008473ffffffffffffffffffffffffffffffffffffffff1673ffffffffffffffffffffffffffffffffffffffff16815260200190815260200160002060008373ffffffffffffffffffffffffffffffffffffffff1673ffffffffffffffffffffffffffffffffffffffff16815260200190815260200160002060009054906101000a900460ff16905092915050565b60006001610e18336108bf565b14610e58576040517f08c379a0000000000000000000000000000000000000000000000000000000008152600401610e4f9061268e565b60405180910390fd5b610e626008610e9c565b6000610e6e6008610e8e565b9050610e7a8482611615565b610e8481846117ef565b8091505092915050565b600081600001549050919050565b6001816000016000828254019250508190555050565b60007f01ffc9a7000000000000000000000000000000000000000000000000000000007bffffffffffffffffffffffffffffffffffffffffffffffffffffffff1916827bffffffffffffffffffffffffffffffffffffffffffffffffffffffff1916149050919050565b60008073ffffffffffffffffffffffffffffffffffffffff166002600084815260200190815260200160002060009054906101000a900473ffffffffffffffffffffffffffffffffffffffff1673ffffffffffffffffffffffffffffffffffffffff1614159050919050565b600033905090565b816004600083815260200190815260200160002060006101000a81548173ffffffffffffffffffffffffffffffffffffffff021916908373ffffffffffffffffffffffffffffffffffffffff160217905550808273ffffffffffffffffffffffffffffffffffffffff166110038361080d565b73ffffffffffffffffffffffffffffffffffffffff167f8c5be1e5ebec7d5bd14f71427d1e84f3dd0314c0f7b2291e5b200ac8c7c3b92560405160405180910390a45050565b600061105482610f1c565b611093576040517f08c379a000000000000000000000000000000000000000000000000000000000815260040161108a906126ee565b60405180910390fd5b600061109e8361080d565b90508073ffffffffffffffffffffffffffffffffffffffff168473ffffffffffffffffffffffffffffffffffffffff1614806110e057506110df8185610d77565b5b8061111e57508373ffffffffffffffffffffffffffffffffffffffff16611106846104f4565b73ffffffffffffffffffffffffffffffffffffffff16145b91505092915050565b8273ffffffffffffffffffffffffffffffffffffffff166111478261080d565b73ffffffffffffffffffffffffffffffffffffffff161461119d576040517f08c379a00000000000000000000000000000000000000000000000000000000081526004016111949061264e565b60405180910390fd5b600073ffffffffffffffffffffffffffffffffffffffff168273ffffffffffffffffffffffffffffffffffffffff16141561120d576040517f08c379a0000000000000000000000000000000000000000000000000000000008152600401611204906126ae565b60405180910390fd5b611218838383611863565b611223600082610f90565b6001600360008573ffffffffffffffffffffffffffffffffffffffff1673ffffffffffffffffffffffffffffffffffffffff16815260200190815260200160002060008282546112739190612a7c565b925050819055506001600360008473ffffffffffffffffffffffffffffffffffffffff1673ffffffffffffffffffffffffffffffffffffffff16815260200190815260200160002060008282546112ca91906129f5565b92505081905550816002600083815260200190815260200160002060006101000a81548173ffffffffffffffffffffffffffffffffffffffff021916908373ffffffffffffffffffffffffffffffffffffffff160217905550808273ffffffffffffffffffffffffffffffffffffffff168473ffffffffffffffffffffffffffffffffffffffff167fddf252ad1be2c89b69c2b068fc378daa952ba7f163c4a11628f55a4df523b3ef60405160405180910390a4611389838383611868565b505050565b8173ffffffffffffffffffffffffffffffffffffffff168373ffffffffffffffffffffffffffffffffffffffff1614156113fd576040517f08c379a00000000000000000000000000000000000000000000000000000000081526004016113f4906126ce565b60405180910390fd5b80600560008573ffffffffffffffffffffffffffffffffffffffff1673ffffffffffffffffffffffffffffffffffffffff16815260200190815260200160002060008473ffffffffffffffffffffffffffffffffffffffff1673ffffffffffffffffffffffffffffffffffffffff16815260200190815260200160002060006101000a81548160ff0219169083151502179055508173ffffffffffffffffffffffffffffffffffffffff168373ffffffffffffffffffffffffffffffffffffffff167f17307eab39ab6107e8899845ad3d59bd9653f200f220920489ca2b5937696c31836040516114ee91906125f1565b60405180910390a3505050565b611506848484611127565b6115128484848461186d565b611551576040517f08c379a00000000000000000000000000000000000000000000000000000000081526004016115489061262e565b60405180910390fd5b50505050565b606060405180602001604052806000815250905090565b606061157982610f1c565b6115b8576040517f08c379a00000000000000000000000000000000000000000000000000000000081526004016115af906127ee565b60405180910390fd5b60006115c2611557565b905060008151116115e2576040518060200160405280600081525061160d565b806115ec84611a04565b6040516020016115fd929190612544565b6040516020818303038152906040525b915050919050565b600073ffffffffffffffffffffffffffffffffffffffff168273ffffffffffffffffffffffffffffffffffffffff161415611685576040517f08c379a000000000000000000000000000000000000000000000000000000000815260040161167c9061278e565b60405180910390fd5b61168e81610f1c565b156116ce576040517f08c379a00000000000000000000000000000000000000000000000000000000081526004016116c59061266e565b60405180910390fd5b6116da60008383611863565b6001600360008473ffffffffffffffffffffffffffffffffffffffff1673ffffffffffffffffffffffffffffffffffffffff168152602001908152602001600020600082825461172a91906129f5565b92505081905550816002600083815260200190815260200160002060006101000a81548173ffffffffffffffffffffffffffffffffffffffff021916908373ffffffffffffffffffffffffffffffffffffffff160217905550808273ffffffffffffffffffffffffffffffffffffffff16600073ffffffffffffffffffffffffffffffffffffffff167fddf252ad1be2c89b69c2b068fc378daa952ba7f163c4a11628f55a4df523b3ef60405160405180910390a46117eb60008383611868565b5050565b6117f882610f1c565b611837576040517f08c379a000000000000000000000000000000000000000000000000000000000815260040161182e9061276e565b60405180910390fd5b8060066000848152602001908152602001600020908051906020019061185e929190611bd4565b505050565b505050565b505050565b600061188e8473ffffffffffffffffffffffffffffffffffffffff16611bb1565b156119f7578373ffffffffffffffffffffffffffffffffffffffff1663150b7a026118b7610f88565b8786866040518563ffffffff1660e01b81526004016118d99493929190612583565b602060405180830381600087803b1580156118f357600080fd5b505af192505050801561192457506040513d601f19601f82011682018060405250810190611921919061203c565b60015b6119a7573d8060008114611954576040519150601f19603f3d011682016040523d82523d6000602084013e611959565b606091505b5060008151141561199f576040517f08c379a00000000000000000000000000000000000000000000000000000000081526004016119969061262e565b60405180910390fd5b805181602001fd5b63150b7a0260e01b7bffffffffffffffffffffffffffffffffffffffffffffffffffffffff1916817bffffffffffffffffffffffffffffffffffffffffffffffffffffffff1916149150506119fc565b600190505b949350505050565b60606000821415611a4c576040518060400160405280600181526020017f30000000000000000000000000000000000000000000000000000000000000008152509050611bac565b600082905060005b60008214611a7e578080611a6790612bc9565b915050600a82611a779190612a4b565b9150611a54565b60008167ffffffffffffffff811115611ac0577f4e487b7100000000000000000000000000000000000000000000000000000000600052604160045260246000fd5b6040519080825280601f01601f191660200182016040528015611af25781602001600182028036833780820191505090505b5090505b60008514611ba557600182611b0b9190612a7c565b9150600a85611b1a9190612c12565b6030611b2691906129f5565b60f81b818381518110611b62577f4e487b7100000000000000000000000000000000000000000000000000000000600052603260045260246000fd5b60200101907effffffffffffffffffffffffffffffffffffffffffffffffffffffffffffff1916908160001a905350600a85611b9e9190612a4b565b9450611af6565b8093505050505b919050565b6000808273ffffffffffffffffffffffffffffffffffffffff163b119050919050565b828054611be090612b66565b90600052602060002090601f016020900481019282611c025760008555611c49565b82601f10611c1b57805160ff1916838001178555611c49565b82800160010185558215611c49579182015b82811115611c48578251825591602001919060010190611c2d565b5b509050611c569190611c5a565b5090565b5b80821115611c73576000816000905550600101611c5b565b5090565b6000611c8a611c85846128f5565b6128d0565b905082815260208101848484011115611ca257600080fd5b611cad848285612b24565b509392505050565b6000611cc8611cc384612926565b6128d0565b905082815260208101848484011115611ce057600080fd5b611ceb848285612b24565b509392505050565b6000611d06611d0184612926565b6128d0565b905082815260208101848484011115611d1e57600080fd5b611d29848285612b33565b509392505050565b600081359050611d40816131b7565b92915050565b600081359050611d55816131ce565b92915050565b600081359050611d6a816131e5565b92915050565b600081519050611d7f816131e5565b92915050565b600082601f830112611d9657600080fd5b8135611da6848260208601611c77565b91505092915050565b600082601f830112611dc057600080fd5b8135611dd0848260208601611cb5565b91505092915050565b600082601f830112611dea57600080fd5b8151611dfa848260208601611cf3565b91505092915050565b600081359050611e12816131fc565b92915050565b600060208284031215611e2a57600080fd5b6000611e3884828501611d31565b91505092915050565b60008060408385031215611e5457600080fd5b6000611e6285828601611d31565b9250506020611e7385828601611d31565b9150509250929050565b600080600060608486031215611e9257600080fd5b6000611ea086828701611d31565b9350506020611eb186828701611d31565b9250506040611ec286828701611e03565b9150509250925092565b60008060008060808587031215611ee257600080fd5b6000611ef087828801611d31565b9450506020611f0187828801611d31565b9350506040611f1287828801611e03565b925050606085013567ffffffffffffffff811115611f2f57600080fd5b611f3b87828801611d85565b91505092959194509250565b60008060408385031215611f5a57600080fd5b6000611f6885828601611d31565b9250506020611f7985828601611d46565b9150509250929050565b60008060408385031215611f9657600080fd5b6000611fa485828601611d31565b925050602083013567ffffffffffffffff811115611fc157600080fd5b611fcd85828601611daf565b9150509250929050565b60008060408385031215611fea57600080fd5b6000611ff885828601611d31565b925050602061200985828601611e03565b9150509250929050565b60006020828403121561202557600080fd5b600061203384828501611d5b565b91505092915050565b60006020828403121561204e57600080fd5b600061205c84828501611d70565b91505092915050565b60006020828403121561207757600080fd5b600082013567ffffffffffffffff81111561209157600080fd5b61209d84828501611daf565b91505092915050565b6000602082840312156120b857600080fd5b600082015167ffffffffffffffff8111156120d257600080fd5b6120de84828501611dd9565b91505092915050565b6000602082840312156120f957600080fd5b600061210784828501611e03565b91505092915050565b600061211c83836121f0565b905092915050565b61212d81612ab0565b82525050565b600061213e82612967565b6121488185612995565b93508360208202850161215a85612957565b8060005b8581101561219657848403895281516121778582612110565b945061218283612988565b925060208a0199505060018101905061215e565b50829750879550505050505092915050565b6121b181612ac2565b82525050565b60006121c282612972565b6121cc81856129a6565b93506121dc818560208601612b33565b6121e581612cff565b840191505092915050565b60006121fb8261297d565b61220581856129b7565b9350612215818560208601612b33565b61221e81612cff565b840191505092915050565b60006122348261297d565b61223e81856129c8565b935061224e818560208601612b33565b61225781612cff565b840191505092915050565b600061226d8261297d565b61227781856129d9565b9350612287818560208601612b33565b61229081612cff565b840191505092915050565b60006122a68261297d565b6122b081856129ea565b93506122c0818560208601612b33565b80840191505092915050565b60006122d96032836129c8565b91506122e482612d10565b604082019050919050565b60006122fc6025836129c8565b915061230782612d5f565b604082019050919050565b600061231f601c836129c8565b915061232a82612dae565b602082019050919050565b6000612342600e836129c8565b915061234d82612dd7565b602082019050919050565b60006123656024836129c8565b915061237082612e00565b604082019050919050565b60006123886019836129c8565b915061239382612e4f565b602082019050919050565b60006123ab602c836129c8565b91506123b682612e78565b604082019050919050565b60006123ce6038836129c8565b91506123d982612ec7565b604082019050919050565b60006123f1602a836129c8565b91506123fc82612f16565b604082019050919050565b60006124146029836129c8565b915061241f82612f65565b604082019050919050565b6000612437602e836129c8565b915061244282612fb4565b604082019050919050565b600061245a6020836129c8565b915061246582613003565b602082019050919050565b600061247d6031836129c8565b91506124888261302c565b604082019050919050565b60006124a0602c836129c8565b91506124ab8261307b565b604082019050919050565b60006124c3602f836129c8565b91506124ce826130ca565b604082019050919050565b60006124e66021836129c8565b91506124f182613119565b604082019050919050565b60006125096031836129c8565b915061251482613168565b604082019050919050565b8082525050565b61252f81612b1a565b82525050565b61253e81612b1a565b82525050565b6000612550828561229b565b915061255c828461229b565b91508190509392505050565b600060208201905061257d6000830184612124565b92915050565b60006080820190506125986000830187612124565b6125a56020830186612124565b6125b26040830185612526565b81810360608301526125c481846121b7565b905095945050505050565b600060208201905081810360008301526125e98184612133565b905092915050565b600060208201905061260660008301846121a8565b92915050565b600060208201905081810360008301526126268184612229565b905092915050565b60006020820190508181036000830152612647816122cc565b9050919050565b60006020820190508181036000830152612667816122ef565b9050919050565b6000602082019050818103600083015261268781612312565b9050919050565b600060208201905081810360008301526126a781612335565b9050919050565b600060208201905081810360008301526126c781612358565b9050919050565b600060208201905081810360008301526126e78161237b565b9050919050565b600060208201905081810360008301526127078161239e565b9050919050565b60006020820190508181036000830152612727816123c1565b9050919050565b60006020820190508181036000830152612747816123e4565b9050919050565b6000602082019050818103600083015261276781612407565b9050919050565b600060208201905081810360008301526127878161242a565b9050919050565b600060208201905081810360008301526127a78161244d565b9050919050565b600060208201905081810360008301526127c781612470565b9050919050565b600060208201905081810360008301526127e781612493565b9050919050565b60006020820190508181036000830152612807816124b6565b9050919050565b60006020820190508181036000830152612827816124d9565b9050919050565b60006020820190508181036000830152612847816124fc565b9050919050565b6000604082019050612863600083018561251f565b6128706020830184612535565b9392505050565b600060608201905061288c600083018661251f565b6128996020830185612535565b81810360408301526128ab8184612262565b9050949350505050565b60006020820190506128ca6000830184612526565b92915050565b60006128da6128eb565b90506128e68282612b98565b919050565b6000604051905090565b600067ffffffffffffffff8211156129105761290f612cd0565b5b61291982612cff565b9050602081019050919050565b600067ffffffffffffffff82111561294157612940612cd0565b5b61294a82612cff565b9050602081019050919050565b6000819050602082019050919050565b600081519050919050565b600081519050919050565b600081519050919050565b6000602082019050919050565b600082825260208201905092915050565b600082825260208201905092915050565b600082825260208201905092915050565b600082825260208201905092915050565b600082825260208201905092915050565b600081905092915050565b6000612a0082612b1a565b9150612a0b83612b1a565b9250827fffffffffffffffffffffffffffffffffffffffffffffffffffffffffffffffff03821115612a4057612a3f612c43565b5b828201905092915050565b6000612a5682612b1a565b9150612a6183612b1a565b925082612a7157612a70612c72565b5b828204905092915050565b6000612a8782612b1a565b9150612a9283612b1a565b925082821015612aa557612aa4612c43565b5b828203905092915050565b6000612abb82612afa565b9050919050565b60008115159050919050565b60007fffffffff0000000000000000000000000000000000000000000000000000000082169050919050565b600073ffffffffffffffffffffffffffffffffffffffff82169050919050565b6000819050919050565b82818337600083830152505050565b60005b83811015612b51578082015181840152602081019050612b36565b83811115612b60576000848401525b50505050565b60006002820490506001821680612b7e57607f821691505b60208210811415612b9257612b91612ca1565b5b50919050565b612ba182612cff565b810181811067ffffffffffffffff82111715612bc057612bbf612cd0565b5b80604052505050565b6000612bd482612b1a565b91507fffffffffffffffffffffffffffffffffffffffffffffffffffffffffffffffff821415612c0757612c06612c43565b5b600182019050919050565b6000612c1d82612b1a565b9150612c2883612b1a565b925082612c3857612c37612c72565b5b828206905092915050565b7f4e487b7100000000000000000000000000000000000000000000000000000000600052601160045260246000fd5b7f4e487b7100000000000000000000000000000000000000000000000000000000600052601260045260246000fd5b7f4e487b7100000000000000000000000000000000000000000000000000000000600052602260045260246000fd5b7f4e487b7100000000000000000000000000000000000000000000000000000000600052604160045260246000fd5b6000601f19601f8301169050919050565b7f4552433732313a207472616e7366657220746f206e6f6e20455243373231526560008201527f63656976657220696d706c656d656e7465720000000000000000000000000000602082015250565b7f4552433732313a207472616e736665722066726f6d20696e636f72726563742060008201527f6f776e6572000000000000000000000000000000000000000000000000000000602082015250565b7f4552433732313a20746f6b656e20616c7265616479206d696e74656400000000600082015250565b7f4e6f742070726976696c65676564000000000000000000000000000000000000600082015250565b7f4552433732313a207472616e7366657220746f20746865207a65726f2061646460008201527f7265737300000000000000000000000000000000000000000000000000000000602082015250565b7f4552433732313a20617070726f766520746f2063616c6c657200000000000000600082015250565b7f4552433732313a206f70657261746f7220717565727920666f72206e6f6e657860008201527f697374656e7420746f6b656e0000000000000000000000000000000000000000602082015250565b7f4552433732313a20617070726f76652063616c6c6572206973206e6f74206f7760008201527f6e6572206e6f7220617070726f76656420666f7220616c6c0000000000000000602082015250565b7f4552433732313a2062616c616e636520717565727920666f7220746865207a6560008201527f726f206164647265737300000000000000000000000000000000000000000000602082015250565b7f4552433732313a206f776e657220717565727920666f72206e6f6e657869737460008201527f656e7420746f6b656e0000000000000000000000000000000000000000000000602082015250565b7f45524337323155524953746f726167653a2055524920736574206f66206e6f6e60008201527f6578697374656e7420746f6b656e000000000000000000000000000000000000602082015250565b7f4552433732313a206d696e7420746f20746865207a65726f2061646472657373600082015250565b7f45524337323155524953746f726167653a2055524920717565727920666f722060008201527f6e6f6e6578697374656e7420746f6b656e000000000000000000000000000000602082015250565b7f4552433732313a20617070726f76656420717565727920666f72206e6f6e657860008201527f697374656e7420746f6b656e0000000000000000000000000000000000000000602082015250565b7f4552433732314d657461646174613a2055524920717565727920666f72206e6f60008201527f6e6578697374656e7420746f6b656e0000000000000000000000000000000000602082015250565b7f4552433732313a20617070726f76616c20746f2063757272656e74206f776e6560008201527f7200000000000000000000000000000000000000000000000000000000000000602082015250565b7f4552433732313a207472616e736665722063616c6c6572206973206e6f74206f60008201527f776e6572206e6f7220617070726f766564000000000000000000000000000000602082015250565b6131c081612ab0565b81146131cb57600080fd5b50565b6131d781612ac2565b81146131e257600080fd5b50565b6131ee81612ace565b81146131f957600080fd5b50565b61320581612b1a565b811461321057600080fd5b5056fea26469706673582212203cddcb1511dc073e3d3ca1a8a3e82a8f0e6c8e73941576d964e61d04a5ce24ff64736f6c6343000801003368747470733a2f2f626166796265696472676971323537626c696a7a326f6c68706234666b7a7535357071696d7267636f72636e686378336d706379693367693774792e697066732e647765622e6c696e6b2f7572692e6a736f6e",
    "linkReferences": {
        "contracts/libraries/IterableMapping.sol": {
            "IterableMapping": [
                {
                    "length": 20,
                    "start": 4611
                },
                {
                    "length": 20,
                    "start": 4732
                }
            ]
        }
    },
    "deployedLinkReferences": {
        "contracts/libraries/IterableMapping.sol": {
            "IterableMapping": [
                {
                    "length": 20,
                    "start": 2670
                },
                {
                    "length": 20,
                    "start": 2791
                }
            ]
        }
    }
}